:100000000C9480000C9479020C9417020C947902E1
:100010000C9479020C9479020C9479020C94790274
:100020000C9479020C9479020C9479020C94790264
:100030000C9479020C9479020C9479020C94790254
:100040000C9479020C9479020C9479020C94790244
:100050000C9479020C9479020C9479020C94790234
:100060000C9479020C9479020C9479020C94790224
:100070000C9479020C9479020C9479020C94790214
:100080000C9479020C9479020C9479020C94790204
:100090000C9479020C9479020C9479020C947902F4
:1000A0000C9479020C9479020C9479020C947902E4
:1000B0000C9479020C9479020C9479020C947902D4
:1000C0000C9479020C9479020C9479020C947902C4
:1000D0000C9479020C9479020C9479020C947902B4
:1000E0000C9479020C947902400040028040024056
:1000F000040004F64004400580400540060004F872
:1001000011241FBECFEFCDBFDFE7DEBFE8EEF0E08A
:1001100041E019C0B791A79137912791079107FD49
:100120000EC097918791EF01F92FE82F0BBF079031
:100130000D92A217B307D9F7FE011BBE04C01D9292
:10014000A217B307E1F7E030F40721F70E944B0153
:080150000C94AA00F894FFCF03
:10015800CF93DF930E949D0140E054E080EDFA01C7
:10016800808320E234E0F901108280E494E060E7C3
:10017800FC016083C0E6D4E01882A0E8B4E01C92D9
:1001880060EA74E0FB011082FA011482F90114821A
:10019800FC0114821C8214961C921497FB01148291
:1001A800FA01108A118A128A138A148A158A168A01
:1001B800178AF901108A118A128A138A148A158AF1
:1001C800168A178AFC01108A118A128A138A148ADD
:1001D800158A168A178A188A198A1A8A1B8A1C8A03
:1001E8001D8A1E8A1F8A50961C92509751961C92FF
:1001F800519752961C92529753961C925397549625
:100208001C92549755961C92559756961C92569741
:1002180057961C925797FB01108A118A128A138AE3
:10022800148A158A168A178AFA011386168615867D
:100238001486F9011386168615861486FC01138622
:100248001686158614861B861E861D861C861B969A
:100258001C921B971E961C921E971D961C921D970A
:100268001C961C92FB011386168615861486E0EEF2
:10027800F5E0118611821082148216821782108688
:0E0288001582128213821286DF91CF910895A3
:100296000E942602E0E4F4E084818F7D8483C0E43A
:1002A600D4E001E010E0FF24F39480910540811131
:1002B6000BC08091024090910340880F991F0196D0
:1002C60080930240909303409091024080910340B6
:1002D60090930140809300400E9468028091014003
:1002E6000E940002809100400E9400020E946E025D
:1002F6008C8180628C838C818F7D8C832FEB84ED47
:1003060091E0215080409040E1F700C000008091CC
:100316000540813011F41092054080910240909181
:100326000340019611F60093024010930340F092A9
:040336000540BBCFF4
:10033A00E0E9F4E0808188608193E83984E0F80795
:10034A00C9F7E0EBF4E0808188608193E83B84E0C0
:10035A00F807C9F7E0E1F4E0808188608193E83129
:10036A0084E0F807C9F7E0E3F4E0808188608193CC
:10037A00E83384E0F807C9F7E0E5F4E080818860B3
:10038A008193E83584E0F807C9F7E0E7F4E0808173
:0E039A0088608193E83784E0F807C9F708957A
:1003A80040E068ED88E790E00E94740240E068ED64
:1003B8008CE790E00E94740240E068ED81E690E0EE
:1003C8000E94740240E068ED80E690E00E947402AA
:1003D80040E068ED83E690E00E9474024CE068ED2E
:1003E80088E690E00E94740240E068ED82E690E0C2
:0803F8000E94740280E00895E8
:1004000080934409E0E4F9E0A0E4B4E009C083810A
:1004100086FF06C014968C91149714961C9214971C
:0E04200083818823A4F78091440990E0089519
:10042E001F920F920FB60F9211248F9381E080933B
:0E043E008A008F910F900FBE0F901F9018959F
:10044C000E94AC000E9441020E9460020E94D401F2
:0E045C000E9458020E944D020E94350208952F
:10046A0040E068ED80E191E00E947402E0E1F1E091
:08047A001282138280E0089554
:1004820040E068ED80E890E00E947402E0E8F0E06D
:080492001186108680E0089538
:10049A00E0E4F9E085E78083118212821092044039
:0604AA00138280E00895BA
:1004B00040E068ED80E590E00E94740280E00895DD
:1004C00040E068ED80E091E00E94740280E00895D1
:0C04D000E0E0F4E084818F7784830895DD
:0C04DC00E0E0F4E08481806884830895EF
:0A04E8001BBEFC0164BF40830895B1
:0404F2000C94000066
:0204F600010003
:0104F8000102
:02000004008278
:090000000000000000C000000037
:00000001FF
